{
  "address": "0x5FbDB2315678afecb367f032d93F642f64180aa3",
  "abi": [
    {
      "inputs": [],
      "stateMutability": "payable",
      "type": "constructor"
    },
    {
      "anonymous": false,
      "inputs": [
        {
          "indexed": false,
          "internalType": "enum luckyseven.choices",
          "name": "userChoice",
          "type": "uint8"
        },
        {
          "indexed": false,
          "internalType": "uint256",
          "name": "result",
          "type": "uint256"
        }
      ],
      "name": "output",
      "type": "event"
    },
    {
      "inputs": [
        {
          "internalType": "enum luckyseven.choices",
          "name": "choice",
          "type": "uint8"
        }
      ],
      "name": "getLucky",
      "outputs": [],
      "stateMutability": "payable",
      "type": "function"
    },
    {
      "inputs": [],
      "name": "poolMoney",
      "outputs": [
        {
          "internalType": "uint256",
          "name": "",
          "type": "uint256"
        }
      ],
      "stateMutability": "view",
      "type": "function"
    }
  ],
  "transactionHash": "0x52276c9c55e5431af8f2df3e46339e2b521674d5aede99f7a5345fc07430f8a5",
  "args": [],
  "numDeployments": 1,
  "solcInputHash": "f9247a1d5f7244553ecaaed10867f881",
  "bytecode": "0x60806040523460005561048a806100176000396000f3fe6080604052600436106100295760003560e01c806333d450951461002e57806387171cd41461005a575b600080fd5b34801561003a57600080fd5b5061004460005481565b604051610051919061024c565b60405180910390f35b61006d61006836600461027b565b61006f565b005b61007a3460026102ba565b60005410156100a45760405162461bcd60e51b815260040161009b90610308565b60405180910390fd5b600034116100c45760405162461bcd60e51b815260040161009b9061034c565b6000600e8260028111156100da576100da61035c565b6100e49043610372565b4042446040516020016100f99392919061038b565b6040516020818303038152906040528051906020012060001c61011c91906103d8565b6101279060016103ec565b905080600714801561014a575060018260028111156101485761014861035c565b145b8061017157506007811080156101715750600082600281111561016f5761016f61035c565b145b806101985750600781118015610198575060028260028111156101965761019661035c565b145b156101f5576101a83460026102ba565b6000546101b59190610372565b600055336108fc6101c73460026102ba565b6040518115909202916000818181858888f193505050501580156101ef573d6000803e3d6000fd5b50610207565b3460005461020391906103ec565b6000555b7fa44e719ce737d04b3ba9026a7631471cd705d0048b87775572c82edf8027c3898282604051610238929190610432565b60405180910390a15050565b805b82525050565b6020810161025a8284610244565b92915050565b6003811061026d57600080fd5b50565b803561025a81610260565b60006020828403121561029057610290600080fd5b600061029c8484610270565b949350505050565b634e487b7160e01b600052601160045260246000fd5b8181028082158382048514176102d2576102d26102a4565b5092915050565b60158152600060208201744e6f7420656e6f75676820706f6f6c206d6f6e657960581b815291505b5060200190565b6020808252810161025a816102d9565b601a81526000602082017f41746c65617374206120776569206d7573742062652073656e7400000000000081529150610301565b6020808252810161025a81610318565b634e487b7160e01b600052602160045260246000fd5b8181038181111561025a5761025a6102a4565b80610246565b60006103978286610385565b6020820191506103a78285610385565b6020820191506103b78284610385565b506020019392505050565b634e487b7160e01b600052601260045260246000fd5b6000826103e7576103e76103c2565b500690565b8082018082111561025a5761025a6102a4565b6003811061026d5761026d61035c565b80610419816103ff565b919050565b600061025a8261040f565b6102468161041e565b604081016104408285610429565b61044d6020830184610244565b939250505056fea2646970667358221220edadf224ddd8de4c9eb34c65461ff4d5cbfc35c64b1e35e67318715a292c3ea664736f6c63430008110033",
  "devdoc": {
    "kind": "dev",
    "methods": {},
    "version": 1
  },
  "userdoc": {
    "kind": "user",
    "methods": {},
    "version": 1
  },
  "storageLayout": {
    "storage": [
      {
        "astId": 87,
        "contract": "contracts/luckyseven.sol:luckyseven",
        "label": "poolMoney",
        "offset": 0,
        "slot": "0",
        "type": "t_uint256"
      }
    ],
    "types": {
      "t_uint256": {
        "encoding": "inplace",
        "label": "uint256",
        "numberOfBytes": "32"
      }
    }
  }
}